:100000000C9434000C94C1010C9451000C945100D8
:100010000C9451000C9451000C9451000C9451001C
:100020000C9451000C94AF000C9451000C945100AE
:100030000C9451000C947D000C9451000C945100D0
:100040000C9451000C9451000C94BD000C94510080
:100050000C9451000C9451000C9451000C945100DC
:100060000C9451000C94510011241FBECFEFD8E026
:10007000DEBFCDBF11E0A0E0B1E0ECE6FEE002C0E3
:1000800005900D92AE37B107D9F711E0AEE7B1E0B8
:1000900001C01D92AF38B107E1F70E9447020C94EE
:1000A00034070C940000E1E8F0E0108287E286BBA0
:1000B000109280008FE89DEF9093850080938400DC
:1000C00081E080936F0084E0808308951092B100F6
:1000D00087E087BB1092B00081E0809370000895A4
:1000E00080E190E09093C5008093C40086E0809307
:1000F000C20088E98093C10008951F920F920FB645
:100100000F9211248F939F938FE89DEF909385001A
:10011000809384008091820190918301892B49F022
:100120008091820190918301019790938301809344
:1001300082018091840190918501892B49F0809101
:1001400084019091850101979093850180938401AA
:100150009F918F910F900FBE0F901F9018951F9237
:100160000F920FB60F921124E09AE89A1092B10004
:100170000F900FBE0F901F9018951F920F920FB601
:100180000F9211242F933F938F939F938091C600DA
:100190008093C600813661F48AE080937F0182E318
:1001A00090E090938301809382018CED95E00DC0E7
:1001B000863681F488E280937F0182E390E0909319
:1001C00083018093820188E795E090938501809375
:1001D0008401CEC0803299F410927F0122E330E096
:1001E00030938301209382018CED95E090938501FB
:1001F0008093840130936E0120936D01B9C08033E8
:10020000A1F48AE080937F0182E390E090938301E0
:10021000809382018CED95E0909385018093840119
:1002200010926E0110926D01A3C0813391F48AE0A7
:1002300080937F0182E390E0909383018093820119
:100240008CED95E0909385018093840181E090E0AE
:100250008BC0823391F48AE080937F0182E390E047
:1002600090938301809382018CED95E090938501BA
:100270008093840182E090E077C0833391F48AE038
:1002800080937F0182E390E09093830180938201C9
:100290008CED95E0909385018093840183E090E05C
:1002A00063C0843391F48AE080937F0182E390E01D
:1002B00090938301809382018CED95E0909385016A
:1002C0008093840184E090E04FC0853391F48AE00C
:1002D00080937F0182E390E0909383018093820179
:1002E0008CED95E0909385018093840185E090E00A
:1002F0003BC0863391F48AE080937F0182E390E0F3
:1003000090938301809382018CED95E09093850119
:100310008093840186E090E027C0873391F48AE0DF
:1003200080937F0182E390E0909383018093820128
:100330008CED95E0909385018093840187E090E0B7
:1003400013C08833A9F48AE080937F0182E390E0B0
:1003500090938301809382018CED95E090938501C9
:100360008093840188E090E090936E0180936D010A
:100370009F918F913F912F910F900FBE0F901F90E3
:1003800018951F920F920FB60F9211248F939F937F
:100390001DBA8BEE8093B20087E08093B10089B1E3
:1003A00084708093800180918801823040F4809134
:1003B0008001882381F18EE0809388012CC0809198
:1003C0008801823049F480918001809381011092EC
:1003D0008701109286011FC0809188018830D8F073
:1003E000809188018E30B8F48091860190918701C8
:1003F000880F991F909387018093860180918001D7
:10040000882349F480918601909187010196909309
:10041000870180938601809188018D3030F480912E
:1004200088018F5F8093880102C0109288019F919C
:100430008F910F900FBE0F901F90189584B18E6012
:1004400084B98AB18B738AB98BB1846C8BB9E9E6B4
:10045000F0E0808181608083E89A0E9453001092CE
:10046000B10087E087BB1092B00081E080937000FC
:1004700080E190E09093C5008093C40086E0809373
:10048000C20088E98093C1000E942F0408952F9232
:100490003F924F925F926F927F928F929F92AF9214
:1004A000BF92CF92DF92EF92FF920F931F93CF9361
:1004B000DF930E941E027894C2E3D0E00AE06CED64
:1004C000E62E65E0F62E18E258E7C52E55E0D52E4B
:1004D0004AEA442E512C31E5232E312C20E4A22E61
:1004E00024E0B22E92E0892E93E0992E8DE6682EBC
:1004F00082E0782E90916C0180917E019817D9F05E
:1005000080917E0100D000D0EDB7FEB7319620E09B
:1005100031E0ADB7BEB712963C932E93119782830C
:1005200013820E94360480917E0180936C010F90AB
:100530000F900F900F9080918601909187018D30E0
:10054000910521F18E30910520F4059709F047C0FF
:1005500030C08031910521F0419709F040C00BC0B7
:1005600000937F01D0938301C0938201F0928501B3
:10057000E092840130C010937F01D0938301C09337
:100580008201D0928501C092840125C010927F0122
:1005900010928301109282011092850110928401C1
:1005A0001092870110928601D0936E01C0936D0165
:1005B00016C000937F01D0938301C0938201F09213
:1005C0008501E0928401809186019091870190934A
:1005D0006E0180936D0110928701109286018091C7
:1005E0007F0180937E0180917E01853009F401C1F5
:1005F000863090F4823009F460C0833030F4882370
:10060000F1F0813009F011C137C0833009F4C0C066
:10061000843009F00AC1C7C08B3009F444C08C3063
:1006200038F4863009F4F2C08A3009F0FEC02BC0DD
:10063000883209F4BFC0893209F0F7C0CFC02B9AC5
:100640004F990CC031E030937F01D0938301C09368
:100650008201F0928501E09284014CCF4E994ACFFD
:1006600084E080937F01D0938301C0938201D09274
:100670008501C09284013ECF2B982A9A4F9B3ACF96
:1006800000937F0137CF2B982A9A8EE091E00E9449
:100690004B048091820190918301892B11F49BE09E
:1006A00096C0A2E098C02B9A809184019091850118
:1006B000892B09F0BAC0B3E099C02B982A9A80918F
:1006C000840190918501892B09F014CF80916D01EF
:1006D00090916E0184309105C1F18530910568F4E7
:1006E00081309105D9F08130910598F082309105E3
:1006F00011F1039709F044C023C08630910599F1A8
:100700008630910548F18730910581F10897C1F550
:1007100032C0B0928501A092840106C02EE833E079
:100720003093850120938401D0938301C09382018B
:1007300010937F0128C09092850180928401F4CFAC
:100740007092850160928401EFCF80EF91E09093E9
:10075000850180938401E8CFA1E8B1E0B0938501E1
:10076000A0938401E1CF24E131E0DACF50928501FA
:1007700040928401D9CF3092850120928401D4CF58
:1007800033E030937F01D0936E01C0936D01B2CE00
:100790002B9A4E99AFCE84E080937F01D092850151
:1007A000C09284013DC02B982A984E9BA3CE1093F3
:1007B0007F01A0CE2B982A988FE391E00E944B04F2
:1007C0008091820190918301892B21F499E2909389
:1007D0007F0190CEA5E0A0937F018CCE2B9A8091D3
:1007E000840190918501892B01F5B6E0B0937F01DA
:1007F00081CE2B982A988091840190918501892B34
:1008000009F078CE26E020937F0174CE2B9A4F9981
:1008100071CE31E030937F01F0928501E092840146
:10082000D0938301C093820165CE10927F0162CE86
:1008300080E190E09093C5008093C40088E18093AC
:10084000C1008EE08093C2000895982F8091C0006F
:1008500085FFFCCF9093C60080E090E008958FE67E
:1008600091E090938C0180938B010895A0E0B0E01B
:10087000ECE3F4E00C940D07FE0135966191719163
:1008800080918B0190918C01AF010E948004209691
:10089000E2E00C9429070F931F93CF93DF938C0111
:1008A000E0918B01F0918C01838181FF21C0C0E038
:1008B000D0E00DC0E0918B01F0918C012085318555
:1008C000BF01F9010995892B11F0CFEFDFEFF80196
:1008D00081918F01882371F7E0918B01F0918C0158
:1008E000208531858AE0BF01F9010995892B11F036
:1008F000CFEFDFEFCE01DF91CF911F910F910895E0
:10090000ABE0B0E0E6E8F4E00C94FD063C012B011E
:100910005A01FC0117821682838181FD03C06FEFAB
:100920007FEFC6C19AE0892E1E010894211C311C5C
:10093000F3012381F20123FD859123FF81912F0192
:10094000882309F4B2C1853239F423FD859123FF50
:1009500081912F01853229F490E0B3010E94730642
:10096000E7CF982FFF24EE249924FFE1FF15D0F064
:100970009B3269F09C3228F4903259F0933291F412
:100980000EC09D3249F0903369F441E024C052E03A
:10099000F52A84E0F82A28C098E0F92A25C0E0E189
:1009A000FE2A22C0F7FC29C0892F80538A3070F4B8
:1009B000F6FE05C0989C902C1124980E15C0E89C5A
:1009C000E02C1124E80EF0E2FF2A0EC09E3229F43A
:1009D000F6FC6BC140E4F42A07C09C3619F450E8D9
:1009E000F52A02C0983649F4F20123FD959123FFC0
:1009F00091912F01992309F0B8CF892F8554833025
:100A000018F08052833038F444E050E0A40EB51E54
:100A10005FE359830FC0933631F0933779F0933504
:100A200009F056C020C0F5018081898342E050E082
:100A3000A40EB51E610101E010E012C0F501C080F6
:100A4000D180F6FC03C06FEF7FEF02C0692D70E02C
:100A500042E050E0A40EB51EC6010E9468068C015B
:100A60005FE7F52214C0F501C080D180F6FC03C019
:100A70006FEF7FEF02C0692D70E042E050E0A40EFE
:100A8000B51EC6010E945D068C0150E8F52AF3FEF2
:100A900007C01AC080E290E0B3010E947306EA9496
:100AA0008E2D90E008171907A8F30EC0F601F7FC89
:100AB0008591F7FE81916F0190E0B3010E9473066A
:100AC000E110EA94015010400115110579F7EAC0D0
:100AD000943611F0993669F5F7FE08C0F5012081CA
:100AE00031814281538184E090E00AC0F501808128
:100AF00091819C01442737FD4095542F82E090E07E
:100B0000A80EB91E9FE6F92257FF09C050954095DF
:100B1000309521953F4F4F4F5F4FE0E8FE2ACA01C5
:100B2000B901A1012AE030E00E949F06D82ED21818
:100B300040C0953729F41F2D1F7E2AE030E01DC0EC
:100B40001F2D197F9F3661F0903720F4983509F0FA
:100B5000ACC00FC0903739F0983709F0A6C004C078
:100B600028E030E00AC0106114FD146020E130E09C
:100B700004C014FD166020E132E017FF08C0F50143
:100B8000608171818281938144E050E008C0F50169
:100B900080819181BC0180E090E042E050E0A40EB1
:100BA000B51EA1010E949F06D82ED2188FE7F82EFD
:100BB000F122F6FE0BC05EEFF522D91438F4F4FEF4
:100BC00007C0F2FC05C08FEEF82202C01D2D01C047
:100BD000192DF4FE0DC0FE01ED0DF11D8081803355
:100BE00019F499EEF92208C01F5FF2FE05C003C098
:100BF0008F2D867809F01F5F0F2DF3FC14C0F0FED7
:100C00000FC01E1510F09D2C0BC09D2C9E0C911A30
:100C10001E2D06C080E290E0B3010E9473061F5FA4
:100C20001E15C0F304C01E1510F4E11A01C0EE2415
:100C300004FF0FC080E390E0B3010E94730602FF3F
:100C40001DC001FD03C088E790E00EC088E590E07C
:100C50000BC0802F867891F001FF02C08BE201C0AB
:100C600080E2F7FC8DE290E0B3010E94730606C0BB
:100C700080E390E0B3010E9473069A94D914C0F304
:100C8000DA94F101ED0DF11D808190E0B3010E9435
:100C90007306DD20A9F706C080E290E0B3010E9450
:100CA0007306EA94EE20C1F743CEF30166817781A3
:100CB000CB012B96E2E10C941907FC0105906150E1
:100CC00070400110D8F7809590958E0F9F1F089562
:100CD000FC016150704001900110D8F7809590950B
:100CE0008E0F9F1F08950F931F93CF93DF938C0157
:100CF000EB018B8181FF1BC082FF0DC02E813F81E4
:100D00008C819D812817390764F4E881F98101936A
:100D1000F983E88306C0E885F985802F0995892B3A
:100D200031F48E819F8101969F838E8302C00FEFE5
:100D30001FEFC801DF91CF911F910F910895FA0124
:100D4000AA27283051F1203181F1E8946F936E7F0A
:100D50006E5F7F4F8F4F9F4FAF4FB1E03ED0B4E0FB
:100D60003CD0670F781F891F9A1FA11D680F791F3C
:100D70008A1F911DA11D6A0F711D811D911DA11D4D
:100D800020D009F468943F912AE0269F112430195D
:100D9000305D3193DEF6CF010895462F4770405DF8
:100DA0004193B3E00FD0C9F7F6CF462F4F70405DA7
:100DB0004A3318F0495D31FD4052419302D0A9F702
:100DC000EACFB4E0A6959795879577956795BA95FC
:100DD000C9F700976105710508959B01AC010A2EC2
:100DE00006945795479537952795BA95C9F7620F99
:100DF000731F841F951FA01D08952F923F924F923D
:100E00005F926F927F928F929F92AF92BF92CF929A
:100E1000DF92EF92FF920F931F93CF93DF93CDB7A3
:100E2000DEB7CA1BDB0B0FB6F894DEBF0FBECDBF1B
:100E300009942A88398848885F846E847D848C84EC
:100E40009B84AA84B984C884DF80EE80FD800C81F5
:100E50001B81AA81B981CE0FD11D0FB6F894DEBFD8
:0C0E60000FBECDBFED010895F894FFCF48
:100E6C002045737461646F3A202575200A00200AAE
:100E7C002020202020202020202020202020202066
:100E8C002020202020202020202020202020202056
:100E9C002020202020202020414252495220002096
:100EAC000A2020202020202020202020202020204C
:100EBC002020202020202020202020202020202026
:100ECC00202020204645434841522000013200009A
:0E0EDC000000020000000025040000000000DD
:00000001FF
